:0300000002815D1D
:01000B0032C2
:03001B000281005F
:10810000BF01350DFEECC39D54806013D295D2970C
:10811000BD1F0C7D000BBB02067B00C295C297EE13
:1081200004B4280E740008B864087800091CB91E4D
:10813000010A758C05C28D320BC295C297BB03062E
:108140007B00D295D29704B4280D740008B8640758
:10815000780009B91F010A758C05C28D32D297D2F9
:1081600096D295D2949000037482F0E5894407F585
:1081700089D2AFD2A9D2ABC295C2977F00758A824D
:10818000758C057400780079007A007B00D28EBA75
:1081900001FD7F01758A82758C0574007800790075
:1081A0007A007B007C1E7D00D28EBA01FDD295D272
:0181B0009737
:00000001FF
