:030000000281007A
:03000B00028277F7
:03001B00028278E6
:10810000D297D296D295D2949000037482F09000C8
:1081100002852F5585892FD278D279D27A852F89F9
:1081200085552FD2A9D2ABD2AF754501752903125F
:1081300081707545027529061281B575450375294B
:1081400002752A011281FA754503752902752A0202
:108150001281FA754505752903128230D297D2969D
:10816000D295D29480FED297C29622D296C29722FE
:1081700031667400752C00752D00752B00752A0072
:10818000D28EE540D295C294B52AFDC295D294B460
:1081900064FD754000052C0544E544B40305052A3B
:1081A000754400E52CB464DA052D752C00E52DB579
:1081B00029D0C28E2231667400752C00752D007591
:1081C0002B00752A00D28EE540D294C295B52AFDC7
:1081D000C294D295B4C8FD754000052C0544E54411
:1081E000B40305052A754400E52CB464DA052D7541
:1081F0002C00E52DB529D0C28E22316B7400752C70
:1082000000752D00752B00D28EE540D294C295B535
:108210002AFDC294D295B403FD754000052CE52CCF
:10822000B464E6052D752C00E52DB529DCC28E223F
:10823000316B7400752C00752D00752B00D28E7576
:108240002A00D28EE540D295C294B52AFDC295D2BD
:1082500094B464FD754000052C0544E544B4030561
:10826000052A754400E52CB464DA052D752C00E56B
:108270002DB529D0C28E223288438946A945052BC7
:10828000A82BB9010AB8042804752B000282B0B9E2
:10829000020AB8021B04752B000282B0B9030AB8A7
:1082A000830E04752B000282B0B8040404752B0001
:0582B000A843A94632BD
:00000001FF
