:030000000281007A
:03000B000282B3BB
:03001B000282B9A5
:10810000D297D296D295D2949000037482F09000C8
:1081100002852F5585892FD278D279D27A852F89F9
:1081200085552FD2A9D2ABD2AF75530075540075C7
:108130002800754800754A00755147758A05D28C2C
:108140007545017529031281877545027529061247
:1081500081CF754503752902752A0112821775456D
:1081600003752902752A02128217754505752903C0
:10817000128250D297D296D295D29480FED297C2D4
:108180009622D296C29722317D7400752C00752DEF
:1081900000752B00752A00758C05D28EE540D295AE
:1081A000C294B52AFDC295D294B464FD7540000511
:1081B0002C0544E544B40305052A754400E52CB4B8
:1081C00064DA052D752C00E52DB529D0C28E22313B
:1081D0007D7400752C00752D00752B00752A0075B7
:1081E0008C05D28EE540D294C295B52AFDC294D2B8
:1081F00095B4C8FD754000052C0544E544B403055D
:10820000052A754400E52CB464DA052D752C00E5CB
:108210002DB529D0C28E2231827400752C00752DA7
:1082200000752B00758C05D28EE540D294C295B5B1
:108230002AFDC294D295B403FD754000052CE52CAF
:10824000B464E6052D752C00E52DB529DCC28E221F
:1082500031827400752C00752D00752B00758C050E
:10826000D28E752A00D28EE540D295C294B52AFDF1
:10827000C295D294B464FD754000052C0544E544D4
:10828000B40305052A754400E52CB464DA052D75A0
:108290002C00E52DB529D0C28E22F552E52875288F
:1082A000002375F00A844440F549E5F04480F54721
:1082B000E55222758A07052832758C07884389465E
:1082C000F5550553E553B400020554E554B40F05C4
:1082D000519A755400E555A945052BA82BB9010AFB
:1082E000B8042804752B0002830BB9020AB8021BDC
:1082F00004752B0002830BB9030AB8830E04752B97
:108300000002830BB8040404752B00F8A951E7F0B0
:0E831000B94A03755146E80551A843A9463203
:00000001FF
