:100000007590FF7E007B007A007C0074EFF58078AD
:1000100005208008ECC3940170ED80EDE5800318A5
:10002000F580E590C394FE601EE590C394FD6017D3
:10003000E590C394FB6010E590C394F76009E590E8
:10004000C394EF600280CA7C01E59064FFFF7900F1
:10005000E8FDEF60BC0975F0028470F9E9FE9404D4
:10006000400502009880AAED94034020EE940160C0
:100070000CEE9402600CEE9403600C8094744102C8
:1000800000A674300200A674420200A675F003EDCB
:1000900014A42E24300200A675F002ED14A42E94B0
:1000A0000324420200A6FF6A60BBEFFA7598624320
:1000B0008920758CFD758AFDD28EF599C299759946
:1000C0000DC29975990AC299C28E0200CD3090FD79
:0B00D0003091FA3092F73093F40111E8
:00000001FF
