:02000000802E50
:05000B0011AFC28D32AF
:05001B00116DC28F32DF
:100030007B007CFF7DFF7EFF7FFF7A0075200075CF
:10004000213B75220CE52211E8AE01AF00E521113C
:10005000E8AC01AD00D287758921D2AFD2ABD2A96D
:10006000758DF0758BF0D28ED28C0080FDBB000CAC
:10007000E5B054E74400F5B08C908031BB010CE54D
:10008000B054E74408F5B08D908022BB020CE5B077
:1000900054E74410F5B08E908013BB030CE5B054C8
:1000A000E74418F5B08F9080047B0080C00B220AD3
:1000B000BA01087A000520EE6480FEE520B402054E
:1000C0007520000521E521B43B057521000522E5D9
:1000D00022B41703752200E52111E8AC01AD00E55B
:1000E0002211E8AE01AF002275F00A84900100935E
:0800F000F4F8E5F093F4F922A5
:0A0100003F065B4F666D7D077F6FC1
:00000001FF